{
  "_format": "hh-sol-artifact-1",
  "contractName": "VerbsDAOGovernance",
  "sourceName": "contracts/VerbsDAOGovernance.sol",
  "abi": [
    {
      "inputs": [],
      "name": "createProposal",
      "outputs": [],
      "stateMutability": "nonpayable",
      "type": "function"
    },
    {
      "inputs": [
        {
          "internalType": "address",
          "name": "",
          "type": "address"
        }
      ],
      "name": "proposalCounts",
      "outputs": [
        {
          "internalType": "uint256",
          "name": "",
          "type": "uint256"
        }
      ],
      "stateMutability": "view",
      "type": "function"
    },
    {
      "inputs": [
        {
          "internalType": "address",
          "name": "",
          "type": "address"
        }
      ],
      "name": "voteCounts",
      "outputs": [
        {
          "internalType": "uint256",
          "name": "",
          "type": "uint256"
        }
      ],
      "stateMutability": "view",
      "type": "function"
    },
    {
      "inputs": [],
      "name": "voteProposal",
      "outputs": [],
      "stateMutability": "nonpayable",
      "type": "function"
    }
  ],
  "bytecode": "0x608060405234801561001057600080fd5b5061038a806100206000396000f3fe608060405234801561001057600080fd5b506004361061004c5760003560e01c80631156e12614610051578063180fd87f1461008157806366a267a91461008b5780638351739a146100bb575b600080fd5b61006b60048036038101906100669190610229565b6100c5565b6040516100789190610261565b60405180910390f35b6100896100dd565b005b6100a560048036038101906100a09190610229565b61016d565b6040516100b29190610261565b60405180910390f35b6100c3610185565b005b60016020528060005260406000206000915090505481565b60018060003373ffffffffffffffffffffffffffffffffffffffff1673ffffffffffffffffffffffffffffffffffffffff16815260200190815260200160002054610128919061027c565b600160003373ffffffffffffffffffffffffffffffffffffffff1673ffffffffffffffffffffffffffffffffffffffff16815260200190815260200160002081905550565b60006020528060005260406000206000915090505481565b60016000803373ffffffffffffffffffffffffffffffffffffffff1673ffffffffffffffffffffffffffffffffffffffff168152602001908152602001600020546101d0919061027c565b6000803373ffffffffffffffffffffffffffffffffffffffff1673ffffffffffffffffffffffffffffffffffffffff16815260200190815260200160002081905550565b6000813590506102238161033d565b92915050565b60006020828403121561023b57600080fd5b600061024984828501610214565b91505092915050565b61025b81610304565b82525050565b60006020820190506102766000830184610252565b92915050565b600061028782610304565b915061029283610304565b9250827fffffffffffffffffffffffffffffffffffffffffffffffffffffffffffffffff038211156102c7576102c661030e565b5b828201905092915050565b60006102dd826102e4565b9050919050565b600073ffffffffffffffffffffffffffffffffffffffff82169050919050565b6000819050919050565b7f4e487b7100000000000000000000000000000000000000000000000000000000600052601160045260246000fd5b610346816102d2565b811461035157600080fd5b5056fea26469706673582212207d5183fb163d9baec249c75c31f94add29075dd8957a558fb58d8414e624945664736f6c63430008040033",
  "linkReferences": {},
  "deployedLinkReferences": {}
}